{
  "_format": "hh-sol-artifact-1",
  "contractName": "Greeter",
  "sourceName": "contracts/Greeter.sol",
  "abi": [
    {
      "inputs": [
        {
          "internalType": "string",
          "name": "_greeting",
          "type": "string"
        }
      ],
      "stateMutability": "nonpayable",
      "type": "constructor"
    },
    {
      "inputs": [],
      "name": "balance",
      "outputs": [
        {
          "internalType": "uint256",
          "name": "",
          "type": "uint256"
        }
      ],
      "stateMutability": "view",
      "type": "function"
    },
    {
      "inputs": [],
      "name": "donate",
      "outputs": [],
      "stateMutability": "payable",
      "type": "function"
    },
    {
      "inputs": [
        {
          "internalType": "int256",
          "name": "x",
          "type": "int256"
        }
      ],
      "name": "foo",
      "outputs": [
        {
          "internalType": "string",
          "name": "",
          "type": "string"
        }
      ],
      "stateMutability": "pure",
      "type": "function"
    },
    {
      "inputs": [],
      "name": "greet",
      "outputs": [
        {
          "internalType": "string",
          "name": "",
          "type": "string"
        }
      ],
      "stateMutability": "view",
      "type": "function"
    },
    {
      "inputs": [
        {
          "internalType": "string",
          "name": "_greeting",
          "type": "string"
        }
      ],
      "name": "setGreeting",
      "outputs": [],
      "stateMutability": "nonpayable",
      "type": "function"
    }
  ],
  "bytecode": "0x60806040523480156200001157600080fd5b5060405162000eb138038062000eb18339818101604052810190620000379190620003a3565b6200006760405180606001604052806022815260200162000e8f60229139826200008760201b620002fa1760201c565b80600090805190602001906200007f92919062000156565b5050620004f1565b620001298282604051602401620000a092919062000451565b6040516020818303038152906040527f4b5c4277000000000000000000000000000000000000000000000000000000007bffffffffffffffffffffffffffffffffffffffffffffffffffffffff19166020820180517bffffffffffffffffffffffffffffffffffffffffffffffffffffffff83818316178352505050506200012d60201b60201c565b5050565b60008151905060006a636f6e736f6c652e6c6f679050602083016000808483855afa5050505050565b8280546200016490620004bb565b90600052602060002090601f016020900481019282620001885760008555620001d4565b82601f10620001a357805160ff1916838001178555620001d4565b82800160010185558215620001d4579182015b82811115620001d3578251825591602001919060010190620001b6565b5b509050620001e39190620001e7565b5090565b5b8082111562000202576000816000905550600101620001e8565b5090565b6000604051905090565b600080fd5b600080fd5b600080fd5b600080fd5b6000601f19601f8301169050919050565b7f4e487b7100000000000000000000000000000000000000000000000000000000600052604160045260246000fd5b6200026f8262000224565b810181811067ffffffffffffffff8211171562000291576200029062000235565b5b80604052505050565b6000620002a662000206565b9050620002b4828262000264565b919050565b600067ffffffffffffffff821115620002d757620002d662000235565b5b620002e28262000224565b9050602081019050919050565b60005b838110156200030f578082015181840152602081019050620002f2565b838111156200031f576000848401525b50505050565b60006200033c6200033684620002b9565b6200029a565b9050828152602081018484840111156200035b576200035a6200021f565b5b62000368848285620002ef565b509392505050565b600082601f8301126200038857620003876200021a565b5b81516200039a84826020860162000325565b91505092915050565b600060208284031215620003bc57620003bb62000210565b5b600082015167ffffffffffffffff811115620003dd57620003dc62000215565b5b620003eb8482850162000370565b91505092915050565b600081519050919050565b600082825260208201905092915050565b60006200041d82620003f4565b620004298185620003ff565b93506200043b818560208601620002ef565b620004468162000224565b840191505092915050565b600060408201905081810360008301526200046d818562000410565b9050818103602083015262000483818462000410565b90509392505050565b7f4e487b7100000000000000000000000000000000000000000000000000000000600052602260045260246000fd5b60006002820490506001821680620004d457607f821691505b60208210811415620004eb57620004ea6200048c565b5b50919050565b61098e80620005016000396000f3fe60806040526004361061004a5760003560e01c80634c970b2f1461004f578063a41368621461008c578063b69ef8a8146100b5578063cfae3217146100e0578063ed88c68e1461010b575b600080fd5b34801561005b57600080fd5b506100766004803603810190610071919061054b565b610115565b6040516100839190610611565b60405180910390f35b34801561009857600080fd5b506100b360048036038101906100ae9190610768565b610197565b005b3480156100c157600080fd5b506100ca61025e565b6040516100d791906107ca565b60405180910390f35b3480156100ec57600080fd5b506100f5610266565b6040516101029190610611565b60405180910390f35b6101136102f8565b005b60606000821361015a576040517f08c379a000000000000000000000000000000000000000000000000000000000815260040161015190610831565b60405180910390fd5b6040518060400160405280600381526020017f666f6f00000000000000000000000000000000000000000000000000000000008152509050919050565b61024460405180606001604052806023815260200161093660239139600080546101c090610880565b80601f01602080910402602001604051908101604052809291908181526020018280546101ec90610880565b80156102395780601f1061020e57610100808354040283529160200191610239565b820191906000526020600020905b81548152906001019060200180831161021c57829003601f168201915b505050505083610396565b806000908051906020019061025a92919061045e565b5050565b600047905090565b60606000805461027590610880565b80601f01602080910402602001604051908101604052809291908181526020018280546102a190610880565b80156102ee5780601f106102c3576101008083540402835291602001916102ee565b820191906000526020600020905b8154815290600101906020018083116102d157829003601f168201915b5050505050905090565b565b61039282826040516024016103109291906108b2565b6040516020818303038152906040527f4b5c4277000000000000000000000000000000000000000000000000000000007bffffffffffffffffffffffffffffffffffffffffffffffffffffffff19166020820180517bffffffffffffffffffffffffffffffffffffffffffffffffffffffff8381831617835250505050610435565b5050565b6104308383836040516024016103ae939291906108e9565b6040516020818303038152906040527f2ced7cef000000000000000000000000000000000000000000000000000000007bffffffffffffffffffffffffffffffffffffffffffffffffffffffff19166020820180517bffffffffffffffffffffffffffffffffffffffffffffffffffffffff8381831617835250505050610435565b505050565b60008151905060006a636f6e736f6c652e6c6f679050602083016000808483855afa5050505050565b82805461046a90610880565b90600052602060002090601f01602090048101928261048c57600085556104d3565b82601f106104a557805160ff19168380011785556104d3565b828001600101855582156104d3579182015b828111156104d25782518255916020019190600101906104b7565b5b5090506104e091906104e4565b5090565b5b808211156104fd5760008160009055506001016104e5565b5090565b6000604051905090565b600080fd5b600080fd5b6000819050919050565b61052881610515565b811461053357600080fd5b50565b6000813590506105458161051f565b92915050565b6000602082840312156105615761056061050b565b5b600061056f84828501610536565b91505092915050565b600081519050919050565b600082825260208201905092915050565b60005b838110156105b2578082015181840152602081019050610597565b838111156105c1576000848401525b50505050565b6000601f19601f8301169050919050565b60006105e382610578565b6105ed8185610583565b93506105fd818560208601610594565b610606816105c7565b840191505092915050565b6000602082019050818103600083015261062b81846105d8565b905092915050565b600080fd5b600080fd5b7f4e487b7100000000000000000000000000000000000000000000000000000000600052604160045260246000fd5b610675826105c7565b810181811067ffffffffffffffff821117156106945761069361063d565b5b80604052505050565b60006106a7610501565b90506106b3828261066c565b919050565b600067ffffffffffffffff8211156106d3576106d261063d565b5b6106dc826105c7565b9050602081019050919050565b82818337600083830152505050565b600061070b610706846106b8565b61069d565b90508281526020810184848401111561072757610726610638565b5b6107328482856106e9565b509392505050565b600082601f83011261074f5761074e610633565b5b813561075f8482602086016106f8565b91505092915050565b60006020828403121561077e5761077d61050b565b5b600082013567ffffffffffffffff81111561079c5761079b610510565b5b6107a88482850161073a565b91505092915050565b6000819050919050565b6107c4816107b1565b82525050565b60006020820190506107df60008301846107bb565b92915050565b7f6e6f74206e65676174697665206f72207a65726f000000000000000000000000600082015250565b600061081b601483610583565b9150610826826107e5565b602082019050919050565b6000602082019050818103600083015261084a8161080e565b9050919050565b7f4e487b7100000000000000000000000000000000000000000000000000000000600052602260045260246000fd5b6000600282049050600182168061089857607f821691505b602082108114156108ac576108ab610851565b5b50919050565b600060408201905081810360008301526108cc81856105d8565b905081810360208301526108e081846105d8565b90509392505050565b6000606082019050818103600083015261090381866105d8565b9050818103602083015261091781856105d8565b9050818103604083015261092b81846105d8565b905094935050505056fe4368616e67696e67206772656574696e672066726f6d202725732720746f2027257327a26469706673582212206b12f09c4c0224adfadb3f480be1589006d4c3c7538c915ba92407ab42be141a64736f6c634300080900334465706c6f79696e67206120477265657465722077697468206772656574696e673a",
  "linkReferences": {},
  "deployedLinkReferences": {}
}