{
  "_format": "hh-sol-artifact-1",
  "contractName": "Ballot3",
  "sourceName": "contracts/Ballot3.sol",
  "abi": [
    {
      "inputs": [
        {
          "internalType": "bytes32[]",
          "name": "proposalName",
          "type": "bytes32[]"
        }
      ],
      "stateMutability": "nonpayable",
      "type": "constructor"
    },
    {
      "inputs": [],
      "name": "chairman",
      "outputs": [
        {
          "internalType": "address",
          "name": "",
          "type": "address"
        }
      ],
      "stateMutability": "view",
      "type": "function"
    },
    {
      "inputs": [
        {
          "internalType": "address",
          "name": "_to",
          "type": "address"
        }
      ],
      "name": "delegate",
      "outputs": [],
      "stateMutability": "nonpayable",
      "type": "function"
    },
    {
      "inputs": [
        {
          "internalType": "address",
          "name": "_voter",
          "type": "address"
        }
      ],
      "name": "giveRightToVote",
      "outputs": [],
      "stateMutability": "nonpayable",
      "type": "function"
    },
    {
      "inputs": [
        {
          "internalType": "uint256",
          "name": "",
          "type": "uint256"
        }
      ],
      "name": "proposals",
      "outputs": [
        {
          "internalType": "bytes32",
          "name": "name",
          "type": "bytes32"
        },
        {
          "internalType": "uint256",
          "name": "voteCount",
          "type": "uint256"
        }
      ],
      "stateMutability": "view",
      "type": "function"
    },
    {
      "inputs": [
        {
          "internalType": "uint256",
          "name": "_proposal",
          "type": "uint256"
        }
      ],
      "name": "vote",
      "outputs": [],
      "stateMutability": "nonpayable",
      "type": "function"
    },
    {
      "inputs": [
        {
          "internalType": "address",
          "name": "",
          "type": "address"
        }
      ],
      "name": "voters",
      "outputs": [
        {
          "internalType": "uint256",
          "name": "weight",
          "type": "uint256"
        },
        {
          "internalType": "bool",
          "name": "voted",
          "type": "bool"
        },
        {
          "internalType": "uint256",
          "name": "vote",
          "type": "uint256"
        },
        {
          "internalType": "address",
          "name": "delegate",
          "type": "address"
        }
      ],
      "stateMutability": "view",
      "type": "function"
    },
    {
      "inputs": [],
      "name": "winerName",
      "outputs": [
        {
          "internalType": "bytes32",
          "name": "winername_",
          "type": "bytes32"
        }
      ],
      "stateMutability": "view",
      "type": "function"
    },
    {
      "inputs": [],
      "name": "winingProposal",
      "outputs": [
        {
          "internalType": "uint256",
          "name": "winingProposal_",
          "type": "uint256"
        }
      ],
      "stateMutability": "view",
      "type": "function"
    }
  ],
  "bytecode": "0x60806040523480156200001157600080fd5b5060405162001499380380620014998339818101604052810190620000379190620002da565b336000806101000a81548173ffffffffffffffffffffffffffffffffffffffff021916908373ffffffffffffffffffffffffffffffffffffffff16021790555060005b81518110156200010e5760026040518060400160405280848481518110620000a757620000a66200032b565b5b6020026020010151815260200160008152509080600181540180825580915050600190039060005260206000209060020201600090919091909150600082015181600001556020820151816001015550508080620001059062000393565b9150506200007a565b5050620003e1565b6000604051905090565b600080fd5b600080fd5b600080fd5b6000601f19601f8301169050919050565b7f4e487b7100000000000000000000000000000000000000000000000000000000600052604160045260246000fd5b6200017a826200012f565b810181811067ffffffffffffffff821117156200019c576200019b62000140565b5b80604052505050565b6000620001b162000116565b9050620001bf82826200016f565b919050565b600067ffffffffffffffff821115620001e257620001e162000140565b5b602082029050602081019050919050565b600080fd5b6000819050919050565b6200020d81620001f8565b81146200021957600080fd5b50565b6000815190506200022d8162000202565b92915050565b60006200024a6200024484620001c4565b620001a5565b9050808382526020820190506020840283018581111562000270576200026f620001f3565b5b835b818110156200029d57806200028888826200021c565b84526020840193505060208101905062000272565b5050509392505050565b600082601f830112620002bf57620002be6200012a565b5b8151620002d184826020860162000233565b91505092915050565b600060208284031215620002f357620002f262000120565b5b600082015167ffffffffffffffff81111562000314576200031362000125565b5b6200032284828501620002a7565b91505092915050565b7f4e487b7100000000000000000000000000000000000000000000000000000000600052603260045260246000fd5b7f4e487b7100000000000000000000000000000000000000000000000000000000600052601160045260246000fd5b6000819050919050565b6000620003a08262000389565b91507fffffffffffffffffffffffffffffffffffffffffffffffffffffffffffffffff821415620003d657620003d56200035a565b5b600182019050919050565b6110a880620003f16000396000f3fe608060405234801561001057600080fd5b50600436106100885760003560e01c8063866933131161005b578063866933131461011457806387f7b975146101325780639e7b8d6114610150578063a3ec138d1461016c57610088565b80630121b93f1461008d578063013cf08b146100a95780635c19a95c146100da57806385bcdc0f146100f6575b600080fd5b6100a760048036038101906100a29190610a15565b61019f565b005b6100c360048036038101906100be9190610a15565b6102e0565b6040516100d1929190610a6a565b60405180910390f35b6100f460048036038101906100ef9190610af1565b610314565b005b6100fe6106b0565b60405161010b9190610b1e565b60405180910390f35b61011c610738565b6040516101299190610b39565b60405180910390f35b61013a61076c565b6040516101479190610b63565b60405180910390f35b61016a60048036038101906101659190610af1565b610790565b005b61018660048036038101906101819190610af1565b61097d565b6040516101969493929190610b99565b60405180910390f35b6000600160003373ffffffffffffffffffffffffffffffffffffffff1673ffffffffffffffffffffffffffffffffffffffff16815260200190815260200160002090506001816000015414610229576040517f08c379a000000000000000000000000000000000000000000000000000000000815260040161022090610c3b565b60405180910390fd5b8060010160009054906101000a900460ff161561027b576040517f08c379a000000000000000000000000000000000000000000000000000000000815260040161027290610ca7565b60405180910390fd5b60018160010160006101000a81548160ff021916908315150217905550818160020181905550600282815481106102b5576102b4610cc7565b5b906000526020600020906002020160010160008154809291906102d790610d25565b91905055505050565b600281815481106102f057600080fd5b90600052602060002090600202016000915090508060000154908060010154905082565b6000600160003373ffffffffffffffffffffffffffffffffffffffff1673ffffffffffffffffffffffffffffffffffffffff16815260200190815260200160002090508060010160009054906101000a900460ff16156103a9576040517f08c379a00000000000000000000000000000000000000000000000000000000081526004016103a090610dba565b60405180910390fd5b3373ffffffffffffffffffffffffffffffffffffffff168273ffffffffffffffffffffffffffffffffffffffff161415610418576040517f08c379a000000000000000000000000000000000000000000000000000000000815260040161040f90610e26565b60405180910390fd5b5b600073ffffffffffffffffffffffffffffffffffffffff16600160008473ffffffffffffffffffffffffffffffffffffffff1673ffffffffffffffffffffffffffffffffffffffff16815260200190815260200160002060030160009054906101000a900473ffffffffffffffffffffffffffffffffffffffff1673ffffffffffffffffffffffffffffffffffffffff161461058857600160008373ffffffffffffffffffffffffffffffffffffffff1673ffffffffffffffffffffffffffffffffffffffff16815260200190815260200160002060030160009054906101000a900473ffffffffffffffffffffffffffffffffffffffff1691503373ffffffffffffffffffffffffffffffffffffffff168273ffffffffffffffffffffffffffffffffffffffff161415610583576040517f08c379a000000000000000000000000000000000000000000000000000000000815260040161057a90610e92565b60405180910390fd5b610419565b60018160010160006101000a81548160ff021916908315150217905550818160030160006101000a81548173ffffffffffffffffffffffffffffffffffffffff021916908373ffffffffffffffffffffffffffffffffffffffff1602179055506000600160008473ffffffffffffffffffffffffffffffffffffffff1673ffffffffffffffffffffffffffffffffffffffff16815260200190815260200160002090508060010160009054906101000a900460ff161561068b578160000154600282600201548154811061065f5761065e610cc7565b5b9060005260206000209060020201600101600082825461067f9190610eb2565b925050819055506106ab565b81600001548160000160008282546106a39190610eb2565b925050819055505b505050565b6000806000905060005b6002805490508110156107335781600282815481106106dc576106db610cc7565b5b9060005260206000209060020201600101541115610720576002818154811061070857610707610cc7565b5b90600052602060002090600202016001015491508092505b808061072b90610d25565b9150506106ba565b505090565b600060026107446106b0565b8154811061075557610754610cc7565b5b906000526020600020906002020160000154905090565b60008054906101000a900473ffffffffffffffffffffffffffffffffffffffff1681565b60008054906101000a900473ffffffffffffffffffffffffffffffffffffffff1673ffffffffffffffffffffffffffffffffffffffff163373ffffffffffffffffffffffffffffffffffffffff161461081e576040517f08c379a000000000000000000000000000000000000000000000000000000000815260040161081590610f54565b60405180910390fd5b600160008273ffffffffffffffffffffffffffffffffffffffff1673ffffffffffffffffffffffffffffffffffffffff16815260200190815260200160002060010160009054906101000a900460ff16156108ae576040517f08c379a00000000000000000000000000000000000000000000000000000000081526004016108a590610fc0565b60405180910390fd5b6000600160008373ffffffffffffffffffffffffffffffffffffffff1673ffffffffffffffffffffffffffffffffffffffff1681526020019081526020016000206000015414610933576040517f08c379a000000000000000000000000000000000000000000000000000000000815260040161092a90611052565b60405180910390fd5b60018060008373ffffffffffffffffffffffffffffffffffffffff1673ffffffffffffffffffffffffffffffffffffffff1681526020019081526020016000206000018190555050565b60016020528060005260406000206000915090508060000154908060010160009054906101000a900460ff16908060020154908060030160009054906101000a900473ffffffffffffffffffffffffffffffffffffffff16905084565b600080fd5b6000819050919050565b6109f2816109df565b81146109fd57600080fd5b50565b600081359050610a0f816109e9565b92915050565b600060208284031215610a2b57610a2a6109da565b5b6000610a3984828501610a00565b91505092915050565b6000819050919050565b610a5581610a42565b82525050565b610a64816109df565b82525050565b6000604082019050610a7f6000830185610a4c565b610a8c6020830184610a5b565b9392505050565b600073ffffffffffffffffffffffffffffffffffffffff82169050919050565b6000610abe82610a93565b9050919050565b610ace81610ab3565b8114610ad957600080fd5b50565b600081359050610aeb81610ac5565b92915050565b600060208284031215610b0757610b066109da565b5b6000610b1584828501610adc565b91505092915050565b6000602082019050610b336000830184610a5b565b92915050565b6000602082019050610b4e6000830184610a4c565b92915050565b610b5d81610ab3565b82525050565b6000602082019050610b786000830184610b54565b92915050565b60008115159050919050565b610b9381610b7e565b82525050565b6000608082019050610bae6000830187610a5b565b610bbb6020830186610b8a565b610bc86040830185610a5b565b610bd56060830184610b54565b95945050505050565b600082825260208201905092915050565b7f6e6f7420726967687420746f20766f7465000000000000000000000000000000600082015250565b6000610c25601183610bde565b9150610c3082610bef565b602082019050919050565b60006020820190508181036000830152610c5481610c18565b9050919050565b7f416c726561647920766f74656400000000000000000000000000000000000000600082015250565b6000610c91600d83610bde565b9150610c9c82610c5b565b602082019050919050565b60006020820190508181036000830152610cc081610c84565b9050919050565b7f4e487b7100000000000000000000000000000000000000000000000000000000600052603260045260246000fd5b7f4e487b7100000000000000000000000000000000000000000000000000000000600052601160045260246000fd5b6000610d30826109df565b91507fffffffffffffffffffffffffffffffffffffffffffffffffffffffffffffffff821415610d6357610d62610cf6565b5b600182019050919050565b7f616c726561647920766f74650000000000000000000000000000000000000000600082015250565b6000610da4600c83610bde565b9150610daf82610d6e565b602082019050919050565b60006020820190508181036000830152610dd381610d97565b9050919050565b7f63616e206e6f742073656c662064656c65676174650000000000000000000000600082015250565b6000610e10601583610bde565b9150610e1b82610dda565b602082019050919050565b60006020820190508181036000830152610e3f81610e03565b9050919050565b7f666f756e64206c6f6f7000000000000000000000000000000000000000000000600082015250565b6000610e7c600a83610bde565b9150610e8782610e46565b602082019050919050565b60006020820190508181036000830152610eab81610e6f565b9050919050565b6000610ebd826109df565b9150610ec8836109df565b9250827fffffffffffffffffffffffffffffffffffffffffffffffffffffffffffffffff03821115610efd57610efc610cf6565b5b828201905092915050565b7f5065726d6973736f6e2064656e696e6564000000000000000000000000000000600082015250565b6000610f3e601183610bde565b9150610f4982610f08565b602082019050919050565b60006020820190508181036000830152610f6d81610f31565b9050919050565b7f766f74657220616c726561647920766f74650000000000000000000000000000600082015250565b6000610faa601283610bde565b9150610fb582610f74565b602082019050919050565b60006020820190508181036000830152610fd981610f9d565b9050919050565b7f766f746572206e657665722067657420726967687420746f20766f746520626560008201527f666f726500000000000000000000000000000000000000000000000000000000602082015250565b600061103c602483610bde565b915061104782610fe0565b604082019050919050565b6000602082019050818103600083015261106b8161102f565b905091905056fea264697066735822122032b865a23336440ed3b4b90a957a28de63e59b1fe8920abceaa42b1ff9d4147064736f6c63430008090033",
  "linkReferences": {},
  "deployedLinkReferences": {}
}